:100000000C942A000C944F000C944F000C944F0059
:100010000C944F000C944F000C944F000C944F0024
:100020000C944F000C944F000C944F000C944F0014
:100030000C944F000C944F000C944F000C944F0004
:100040000C944F000C944F000C944F000C944F00F4
:100050000C944F0011241FBECFE5D8E0DEBFCDBF0A
:0C0060000E9436000C943400F894FFCF8E
:10006C008A98BC98B8988B9AA79AA29A9398AF98AA
:10007C00AA98829B02C0939AFCCFB49B02C0AF9A01
:10008C00F8CFB09B02C0AA9AF4CF9398AF98AA98D5
:02009C00F0CFA3
:04009E000C940000BE
:00000001FF
